:020000040000FA
:100000000C94F9010C9421020C9421020C9421020D
:100010000C9421020C9421020C9421020C942102D4
:100020000C9421020C9421020C9421020C942102C4
:100030000C9421020C9421020C9421020C942102B4
:100040000C94DB050C9421020C9421020C942102E7
:100050000C9421020C9421020C9421020C94210294
:100060000C9421020C942102000000000000000307
:100070004040404040004002A0A0A000000000041A
:100080005050F850F85050062078A07028F0200604
:10009000C0C81020409818066090A040A89068063C
:1000A000C040800000000003204080808040200489
:1000B00080402020204080040020A870A820000656
:1000C000002020F82020000600000000C04080032F
:1000D0000000F800000000060000000000C0C0039F
:1000E0000008102040800006708898A8C888700614
:1000F00040C040404040E004708808102040F806AE
:10010000F81020100888700610305090F810100673
:10011000F880F00808887006304080F08888700603
:10012000F88808102020200670888870888870065B
:10013000708888780810600600C0C000C0C0000346
:1001400000C0C000C0408003102040804020100547
:100150000000F800F80000068040201020408005D4
:10016000708808102000200670880868A8A870060B
:1001700070888888F8888806F08888F08888F00673
:100180007088808080887006E09088888890E0067B
:10019000F88080F08080F806F88080F0808080060B
:1001A000708880B888887806888888F88888880663
:1001B000E04040404040E0043810101010906006CD
:1001C0008890A0C0A0908806808080808080F806FB
:1001D00088D8A8A8888888068888C8A898888806A3
:1001E0007088888888887006F08888F0808080060B
:1001F00070888888A8906806F08888F0A0908806A3
:10020000788080700808F006F82020202020200642
:10021000888888888888700688888888885020061A
:10022000888888A8A8A85006888850205088880602
:100230008888885020202006F80810204080F80682
:10024000E08080808080E00400804020100800066C
:10025000E02020202020E00420508800000000063C
:10026000000000000000F8068040200000000004AC
:1002700000007008788878068080B0C88888F0060A
:10028000000070888088700608086898888878065A
:1002900000007088F8807006304840E0404040061A
:1002A00000788888780870068080B0C888888806BA
:1002B0004000C0404040E004100030101090600545
:1002C000808090A0C0A09005C04040404040E00425
:1002D0000000D0A8A88888060000B0C888888806D2
:1002E00000007088888870060000F088F080800622
:1002F00000006898780808060000B0C88080800672
:10030000000070807008F0064040E0404048300631
:100310000000888888986806000088888850200631
:10032000000088A8A8A85006000088502050880621
:1003300000008888780870060000F8102040F80651
:100340002040408040402004808080808080800267
:10035000804040204040800400000068900000067B
:10036000609090600000000500000000230026005F
:10037000290000000000240027002A0000000000DF
:10038000250028002B0004040404040404040202D1
:100390000202020203030303030301020408102004
:1003A000408001020408102001020408102000000F
:1003B0000008000201000003040700000000000024
:1003C00000002020472041204D204520204F20566E
:1003D000204520522020002020502052204520532C
:1003E000205320205320542041205220542020000C
:1003F000E70811241FBECFEFD8E0DEBFCDBF11E06C
:10040000A0E0B1E0EEE5F7E102C005900D92A23365
:10041000B107D9F722E0A2E3B1E001C01D92A73DE8
:10042000B207E1F711E0C9EFD1E004C02197FE0166
:100430000E94820AC83FD107C9F70E9425060C9482
:10044000AD0B0C940000833081F028F4813099F0DA
:100450008230A9F008958730A9F08830C9F084303F
:10046000B1F4809180008F7D03C0809180008F77F0
:1004700080938000089584B58F7784BD089584B5F6
:100480008F7DFBCF8091B0008F778093B00008956F
:100490008091B0008F7DF9CF1F93CF93DF93282FEA
:1004A00030E0F901E255FC4F8491F901E656FC4F2A
:1004B000D491F901EA57FC4FC491CC23A9F0162F2F
:1004C00081110E942302EC2FF0E0EE0FFF1FE45891
:1004D000FC4FA591B4918FB7F894EC91111108C01D
:1004E000D095DE23DC938FBFDF91CF911F910895CC
:1004F000DE2BF8CFCF93DF9390E0FC01E656FC4F64
:1005000024918A579C4FFC0184918823C9F090E084
:10051000880F991FFC01EE58FC4FA591B491FC0186
:10052000E458FC4FC591D49161110DC09FB7F89468
:100530008C91209582238C938881282328839FBFC8
:10054000DF91CF910895623051F49FB7F8943C91B8
:10055000822F809583238C93E8812E2BEFCF8FB74A
:10056000F894EC912E2B2C938FBFEACF8E3008F0AD
:100570008E508770806480937C0080917A008064C4
:1005800080937A0080917A0086FDFCCF809178007C
:100590009091790008953FB7F89480916F01909100
:1005A0007001A0917101B091720126B5A89B05C0A0
:1005B0002F3F19F00196A11DB11D3FBFBA2FA92FE2
:1005C000982F8827BC01CD01620F711D811D911DDF
:1005D00042E0660F771F881F991F4A95D1F708954B
:1005E0008F929F92AF92BF92CF92DF92EF92FF9243
:1005F0004B015C010E94CB026B017C010E94CB028B
:100600006C197D098E099F09683E7340810591052B
:10061000A8F321E0821A9108A108B10888EEC80E5B
:1006200083E0D81EE11CF11C81149104A104B104E3
:1006300029F7FF90EF90DF90CF90BF90AF909F9001
:100640008F9008950895620F731FFC017187608772
:10065000421B530B538742870895FC0171876087C3
:10066000538742870895CF93DF93FC012281338122
:100670003327F901E255FC4F8491F901E656FC4F0E
:10068000D491F901EA57FC4FC491CC23A1F0811118
:100690000E942302EC2FF0E0EE0FFF1FE859FC4F01
:1006A000A591B491EC91ED2381E090E009F480E014
:1006B000DF91CF91089580E090E0FACFFC01868130
:1006C0000C94B6020C945E03FC0184810C94B60277
:1006D0000C946403CF93DF93EC010E94640321E048
:1006E00048855985481759070CF420E0822FDF917F
:1006F000CF910895CF93DF93EC010E94640321E032
:100700004A855B85841795070CF420E0822FDF91E2
:10071000CF910895CF93DF93EC010E945E0321E017
:1007200048855985481759070CF420E0822FDF913E
:10073000CF910895CF93DF93EC010E945E0321E0F7
:100740004A855B85841795070CF420E0822FDF91A2
:10075000CF9108950E94330321E0892B09F020E016
:10076000822F0895CF93DF93EC010E94AA03811199
:1007700019C0CE010E949A03811117C0CE010E94B8
:100780008A03811115C0CE010E947A03811113C022
:10079000CE010E946A03811111C085E090E0DF91D3
:1007A000CF91089590E080E0FACF81E090E0F7CF1C
:1007B00082E090E0F4CF83E090E0F1CF84E090E03D
:1007C000EECFCF93DF93EC010E94B2032C853D85E1
:1007D0002817390729F09D878C87DF91CF910895DD
:1007E00085E090E0FACF0F931F93CF93DF93209192
:1007F000020130910301F901EE0FFF1FEE0FFF1F01
:10080000E558FE4FE901CC0FDD1FCC0FDD1FC958A5
:10081000DE4F888199814091000150910101840F40
:10082000951F089608E010E0B8010E945A0A9183CB
:1008300080838A819B814091730150917401840F60
:10084000951F0896B8010E945A0A938382832F5FEE
:100850003F4F3093030120930201DF91CF911F910D
:100860000F910895CF92DF92EF92FF920F931F9313
:10087000CF93DF9300D0CDB7DEB769834A83880F6B
:10088000991F0091D1021091D202000F111FEBE7C6
:10089000F2E09F012B5732402017310714F41192D8
:1008A000F8CF2981FC01E558FD4F21838A8180839F
:1008B00060E08091CF020E944C021016110604F5F0
:1008C00001501109F801E558FD4FE080D090CD02AC
:1008D000C090CB0288E0F82E6E2D661F6627661F3B
:1008E0008C2D0E944C02EE0C61E08D2D0E944C027A
:1008F00060E08D2D0E944C02FA94F110EDCFDDCF17
:1009000061E08091CF020F900F90DF91CF911F9106
:100910000F91FF90EF90DF90CF900C944C02EF92EC
:10092000FF921F93CF93DF932091D1023091D20297
:1009300082179307B4F4EC0123E0880F991F2A95DE
:10094000E1F79C0125573D4F790111E0F701119224
:100950007F0140E0612FCE010E9432041F5F1930F9
:10096000A9F7DF91CF911F91FF90EF90089520910B
:10097000D1023091D2028217930774F4FC0123E074
:10098000EE0FFF1F2A95E1F7E558FD4FE60FF71F21
:10099000408B6F5F0C94320408954F925F926F9278
:1009A0007F928F929F92AF92BF92CF92DF92EF92FF
:1009B000FF920F931F93CF93DF938C01BAE6CB2E58
:1009C000B1E0DB2EF8018491E82EF12C80528036C4
:1009D00008F08FC0C7018097A3E0880F991FAA95E0
:1009E000E1F7A2E3B1E030E020E0EC01C859DF4FCD
:1009F000FE01E20FF31FE4914D915D916D917C91A9
:100A000013974E2B4D935D936D937C9313972F5FAC
:100A10003F4F18962730310559F7FC01E159FF4F38
:100A20009490812C981409F464C0A2E3B1E04D9035
:100A30005D906D907C901397B301A201440F551FF8
:100A4000661F771F4D935D936D937C931397149658
:100A50004D915D916D917C911797440F551F661FC5
:100A6000771F77FC416014964D935D936D937C9353
:100A700017971896CA16DB06D1F632E3A32E31E09B
:100A8000B32ED0E0C0E0D50114964C91BE0183E0B6
:100A900090E00E94B704F50140805180628073802D
:100AA000472D552766277727BE0182E090E00E94F8
:100AB000B704A30166277727BE0181E090E00E947A
:100AC000B7047727672D562D452DBE0190E080E0B5
:100AD0000E94B7042196F8E0AF0EB11CC730D105D3
:100AE00091F660E570E080E090E00E94F00283946F
:100AF00099CF8091790190917A01DC01ED91FC917F
:100B00000480F581E02D0995892B29F00F5F1F4F97
:100B1000EF2809F057CFDF91CF911F910F91FF90F0
:100B2000EF90DF90CF90BF90AF909F908F907F908D
:100B30006F905F904F9008958F929F92AF92BF9267
:100B4000CF92DF92EF92FF92CF93DF9388E0882ECF
:100B5000912CA12CB12C0E949F09A50194010E9407
:100B6000F7096B010E949F0920917B0130917C0164
:100B70002C153D0581F3A50194010E94F7092091F0
:100B80007D0130917E012617370729F3D092760137
:100B9000C09275017093780160937701DF91CF91D6
:100BA000FF90EF90DF90CF90BF90AF909F908F908D
:100BB00008950C94240B1F920F920FB60F921124DC
:100BC0002F933F938F939F93AF93BF9380916B012C
:100BD00090916C01A0916D01B0916E0130916A010C
:100BE00023E0230F2D3758F50196A11DB11D209349
:100BF0006A0180936B0190936C01A0936D01B09397
:100C00006E0180916F0190917001A0917101B0917E
:100C100072010196A11DB11D80936F019093700127
:100C2000A0937101B0937201BF91AF919F918F9189
:100C30003F912F910F900FBE0F901F90189526E8AF
:100C4000230F0296A11DB11DD2CFCF93DF9300D009
:100C500000D0CDB7DEB7789484B5826084BD84B50A
:100C6000816084BD85B5826085BD85B5816085BDA7
:100C700080916E00816080936E001092810080915F
:100C800081008260809381008091810081608093E7
:100C90008100809180008160809380008091B1000C
:100CA00084608093B1008091B00081608093B00037
:100CB00080917A00846080937A0080917A008260CB
:100CC00080937A0080917A00816080937A0080918D
:100CD0007A00806880937A001092C1008091D102DE
:100CE0009091D2021816190634F441E06CE090E0BD
:100CF00080E00E9432048091D1029091D2021816B5
:100D0000190634F44FE06AE090E080E00E9432047B
:100D100090E080E00E948F048EE090E00E94880ABC
:100D20009A83898382E191E0A981BA8111969C938B
:100D30008E9384E690E019969C938E9318978BE996
:100D400093E01B969C938E931A9785E090E01D96F6
:100D50009C938E931C9780E190E013969C938E93C6
:100D6000129762E00E947A028FE090E0E981FA81B6
:100D70009583848360E00E947A028EE090E0A981EE
:100D8000BA8117969C938E93169760E00E947A0220
:100D9000E981FA81F0937A01E093790180E00E9481
:100DA000B602BC01990F880B990B6115710581057D
:100DB000910511F00E94EE090E949F09F8E0CF2EE4
:100DC000D12CE12CF12CA70196010E94F709709318
:100DD0007C0160937B010E949F09A70196010E94FC
:100DE000F70970937E0160937D012091020130919B
:100DF00003013A83298389819A81039744F40E94ED
:100E0000F303A981BA811196BA83A983F4CF0E9412
:100E10009C058091D1029091D2021816190634F4E3
:100E200041E06CE090E080E00E9432048091D102C9
:100E30009091D2021816190634F448E06AE090E066
:100E400080E00E94320490E080E00E948F0438E04D
:100E5000632E712C40E8C42ED12C58E0852E912CA5
:100E6000A12CB12C60E0262E60E0362EEE24EA9410
:100E7000FE2C44244394512C87ED93E00E94CD0432
:100E8000E0910201F09103018F01025011092BE75B
:100E900031E03C832B83D90190E080E0EE0FFF1F0F
:100EA000EE0FFF1F9F0129583E4F3A832983B90156
:100EB0006E5F7F4F801791070CF035C14D915C91AB
:100EC0001197E981FA81208131814217530759F442
:100ED00012964D915C911397FB012081318142174D
:100EE000530709F440C101961496E4CF0E949C0573
:100EF00090E080E00E948F048091D1029091D20214
:100F00001816190634F441E06CE090E080E00E948D
:100F100032048091D1029091D2021816190634F44D
:100F200048E06AE090E080E00E94320490E080E0D7
:100F30000E948F042114310409F49ECF0E94000006
:100F40009BCF8430910569F5809173019091740174
:100F5000019741F01092010110920001F09274018A
:100F6000E09273012091020130910301F901319760
:100F7000ABE7B1E090E080E08E179F0794F5019613
:100F800014964D915C91159711965C934E9316961D
:100F90004D915C91179713965C934E93129714960C
:100FA000EBCF8330910579F48091730190917401B6
:100FB0000196C1F210920101109200015092740149
:100FC00040927301CFCF209100013091010102972F
:100FD00049F62130310531F2F0920101E092000131
:100FE000BDC0EE0FFF1FEE0FFF1FE558FE4F220F93
:100FF000331F220F331F2D583E4FD9018D919C91E5
:101000004091000150910101840F951F0896B30192
:101010000E945A0A91838083D90112968D919C91E6
:101020002091730130917401820F931F0896B301D0
:101030000E945A0A938382834081518120917501D5
:10104000309176014217530759F42091770130917E
:1010500078012817390721F40E94F3030E949C05A8
:1010600090E080E00E948F0410E000E08091D102C7
:101070009091D202209102013091030102171307CF
:101080004CF518161906ECF4EB81FC816081718136
:1010900068307105B0F4828193818830910588F4BD
:1010A000A60102C0559547958A95E2F7FB01E558E0
:1010B000FD4F8089482B408B6F5F90E080E00E945D
:1010C00032040F5F1F4F2B813C812C5F3F4F3C83CD
:1010D0002B83CCCF18161906FCF460917501709122
:1010E000760168307105C0F48091770190917801A4
:1010F0008830910588F4A60102C0559547958A95D8
:10110000E2F7FB01E558FD4F8089482B408B6F5F6C
:1011100090E080E00E94320466E970E080E090E0B8
:101120000E94F002ADCE8091790190917A01DC01AC
:10113000ED91FC910480F581E02D099581309105B8
:1011400009F0FFCE20910001309101012F3F3F4F68
:1011500009F408CF9093010180930001109274016B
:1011600010927301FFCE90E080E00E948F0482EC29
:1011700093E00E94CD0450920301409202010E942C
:101180009F09A50194010E94F70970937C01609367
:101190007B010E949F09A50194010E94F7097093A9
:1011A0007E0160937D01E0910201F0910301FA83D9
:1011B000E98329813A81233031050CF097CE0E94D2
:1011C000F30389819A8101969A838983F2CFCF9321
:1011D000DF93CBE0D0E0D093CC02C093CB028DE084
:1011E00090E09093CE028093CD028AE090E09093BD
:1011F000D0028093CF0281E090E09093D20280935E
:10120000D10261E08BE00E947A0261E08091CD0220
:101210000E947A0261E08091CF020E947A0261E02E
:101220008091CF020E944C02D093CC02C093CB029B
:10123000EBE8F2E08BEC92E011928E179F07E1F75A
:10124000D0E0C0E08091D1029091D202C817D907B6
:101250003CF540E06FE0CE010E9432048091D10263
:101260009091D202C817D9072CF447E06BE0CE0169
:101270000E94320440E069E0CE010E943204CE01B7
:101280000E948F048091D1029091D202C817D90791
:101290002CF440E06CE0CE010E9432042196D2CFC3
:1012A000DF91CF9108958F929F92AF92BF92CF928C
:1012B000DF92EF92FF92CF93DF93EC016881798107
:1012C0008A819B81611571058105910521F464E294
:1012D00079ED8BE597E02DE133EF41E050E00E949E
:1012E000F70949015A019B01AC01A7EAB1E40E9448
:1012F000160A6B017C01ACEEB4EFA50194010E94CB
:10130000240AC60ED71EE81EF91EF7FE06C081E0AD
:10131000C81AD108E10880E8F80AC882D982EA82AE
:10132000FB82C701B6019F77DF91CF91FF90EF90CD
:10133000DF90CF90BF90AF909F908F9008958F9245
:101340009F92AF92BF92CF92DF92EF92FF92609105
:1013500004017091050180910601909107016115CA
:1013600071058105910521F464E279ED8BE597E043
:101370002DE133EF41E050E00E94F70949015A01A5
:101380009B01AC01A7EAB1E40E94160A6B017C0143
:10139000ACEEB4EFA50194010E94240AC60ED71E3C
:1013A000E81EF91EF7FE06C081E0C81AD108E10860
:1013B00080E8F80AC0920401D0920501E09206018B
:1013C000F0920701C701B6019F77FF90EF90DF9081
:1013D000CF90BF90AF909F908F900895609304013D
:1013E0007093050180930601909307010895052EDF
:1013F00097FB1EF400940E940E0A57FD07D00E942E
:10140000290A07FC03D04EF40C940E0A509540951F
:10141000309521953F4F4F4F5F4F089590958095A0
:10142000709561957F4F8F4F9F4F08950E944B0A93
:10143000A59F900DB49F900DA49F800D911D112428
:101440000895B7FF0C94160A0E94160A821B930B8C
:101450000895A1E21A2EAA1BBB1BFD010DC0AA1FF5
:10146000BB1FEE1FFF1FA217B307E407F50720F00D
:10147000A21BB30BE40BF50B661F771F881F991F88
:101480001A9469F760957095809590959B01AC01D1
:10149000BD01CF010895A29FB001B39FC001A39FDA
:1014A000700D811D1124911DB29F700D811D11249D
:1014B000911D089597FB072E16F4009407D077FD31
:1014C00009D00E946E0A07FC05D03EF490958195E4
:1014D0009F4F0895709561957F4F0895AA1BBB1B80
:1014E00051E107C0AA1FBB1FA617B70710F0A61B24
:1014F000B70B881F991F5A95A9F780959095BC0145
:10150000CD010895EE0FFF1F0590F491E02D099491
:101510000F931F93CF93DF938230910510F482E0F5
:1015200090E0E091D502F091D60230E020E0B0E00A
:10153000A0E0309799F42115310509F44AC0281B21
:10154000390B24303105D8F58A819B8161157105ED
:1015500089F1FB0193838283FE0111C04081518197
:101560000281138148175907E0F04817590799F489
:10157000109761F012960C93129713961C93329663
:10158000CF01DF91CF911F910F9108950093D50264
:101590001093D602F4CF2115310551F042175307AD
:1015A00038F0A901DB019A01BD01DF01F801C1CFCB
:1015B000EF01F9CF9093D6028093D502CDCFFE01F3
:1015C000E20FF31F819391932250310939832883CD
:1015D000D7CF2091D3023091D402232B41F4209114
:1015E0000A0130910B013093D4022093D302209151
:1015F0000801309109012115310541F42DB73EB79D
:1016000040910C0150910D01241B350BE091D30248
:10161000F091D402E217F307A0F42E1B3F0B28171A
:10162000390778F0AC014E5F5F4F2417350748F05B
:101630004E0F5F1F5093D4024093D3028193919336
:101640009FCFF0E0E0E09CCFCF93DF930097E9F0ED
:10165000FC01329713821282A091D502B091D6027A
:10166000ED0130E020E01097A1F420813181820F5C
:10167000931F2091D3023091D4022817390709F023
:1016800061C0F093D402E093D302DF91CF9108952B
:10169000EA01CE17DF07E8F54A815B819E0141151B
:1016A0005105B1F7E901FB83EA8349915991C40FD0
:1016B000D51FEC17FD0761F4808191810296840F9C
:1016C000951FE90199838883828193819B838A8313
:1016D000F0E0E0E012968D919C9113970097B9F598
:1016E0002D913C911197CD010296820F931F20916D
:1016F000D3023091D4022817390739F6309751F5C3
:101700001092D6021092D502B093D402A093D302C5
:10171000BCCFD383C28340815181840F951FC817EA
:10172000D90761F44E5F5F4F88819981480F591F37
:10173000518340838A819B81938382832115310564
:1017400009F0B0CFF093D602E093D5029ECFFD0111
:10175000DC01C0CF13821282D7CFF894FFCF0100F3
:101760000100010000000000D7028000000000001E
:101770002203D905E103B203AA039A038A037A0379
:101780006A036803620364035E0333032D032303C8
:107E0000112484B714BE81FFF0D085E080938100F7
:107E100082E08093C00088E18093C10086E0809377
:107E2000C20080E18093C4008EE0C9D0259A86E02C
:107E300020E33CEF91E0309385002093840096BBD3
:107E4000B09BFECF1D9AA8958150A9F7CC24DD24C4
:107E500088248394B5E0AB2EA1E19A2EF3E0BF2EE7
:107E6000A2D0813461F49FD0082FAFD0023811F036
:107E7000013811F484E001C083E08DD089C08234E0
:107E800011F484E103C0853419F485E0A6D080C0E4
:107E9000853579F488D0E82EFF2485D0082F10E0AE
:107EA000102F00270E291F29000F111F8ED06801E7
:107EB0006FC0863521F484E090D080E0DECF843638
:107EC00009F040C070D06FD0082F6DD080E0C81688
:107ED00080E7D80618F4F601B7BEE895C0E0D1E017
:107EE00062D089930C17E1F7F0E0CF16F0E7DF06D8
:107EF00018F0F601B7BEE89568D007B600FCFDCFD4
:107F0000A601A0E0B1E02C9130E011968C91119780
:107F100090E0982F8827822B932B1296FA010C0160
:107F200087BEE89511244E5F5F4FF1E0A038BF0790
:107F300051F7F601A7BEE89507B600FCFDCF97BE46
:107F4000E89526C08437B1F42ED02DD0F82E2BD052
:107F50003CD0F601EF2C8F010F5F1F4F84911BD097
:107F6000EA94F801C1F70894C11CD11CFA94CF0C13
:107F7000D11C0EC0853739F428D08EE10CD085E9AC
:107F80000AD08FE07ACF813511F488E018D01DD067
:107F900080E101D065CF982F8091C00085FFFCCF94
:107FA0009093C60008958091C00087FFFCCF809118
:107FB000C00084FD01C0A8958091C6000895E0E648
:107FC000F0E098E1908380830895EDDF803219F02E
:107FD00088E0F5DFFFCF84E1DECF1F93182FE3DFCA
:107FE0001150E9F7F2DF1F91089580E0E8DFEE27F6
:047FF000FF270994CA
:027FFE00040479
:00000001FF
