:100000000C94F9010C9421020C9421020C9421020D
:100010000C9421020C9421020C9421020C942102D4
:100020000C9421020C9421020C9421020C942102C4
:100030000C9421020C9421020C9421020C942102B4
:100040000C94EF040C9421020C9421020C942102D4
:100050000C9421020C9421020C9421020C94210294
:100060000C9421020C942102000000000000000307
:100070004040404040004002A0A0A000000000041A
:100080005050F850F85050062078A07028F0200604
:10009000C0C81020409818066090A040A89068063C
:1000A000C040800000000003204080808040200489
:1000B00080402020204080040020A870A820000656
:1000C000002020F82020000600000000C04080032F
:1000D0000000F800000000060000000000C0C0039F
:1000E0000008102040800006708898A8C888700614
:1000F00040C040404040E004708808102040F806AE
:10010000F81020100888700610305090F810100673
:10011000F880F00808887006304080F08888700603
:10012000F88808102020200670888870888870065B
:10013000708888780810600600C0C000C0C0000346
:1001400000C0C000C0408003102040804020100547
:100150000000F800F80000068040201020408005D4
:10016000708808102000200670880868A8A870060B
:1001700070888888F8888806F08888F08888F00673
:100180007088808080887006E09088888890E0067B
:10019000F88080F08080F806F88080F0808080060B
:1001A000708880B888887806888888F88888880663
:1001B000E04040404040E0043810101010906006CD
:1001C0008890A0C0A0908806808080808080F806FB
:1001D00088D8A8A8888888068888C8A898888806A3
:1001E0007088888888887006F08888F0808080060B
:1001F00070888888A8906806F08888F0A0908806A3
:10020000788080700808F006F82020202020200642
:10021000888888888888700688888888885020061A
:10022000888888A8A8A85006888850205088880602
:100230008888885020202006F80810204080F80682
:10024000E08080808080E00400804020100800066C
:10025000E02020202020E00420508800000000063C
:10026000000000000000F8068040200000000004AC
:1002700000007008788878068080B0C88888F0060A
:10028000000070888088700608086898888878065A
:1002900000007088F8807006304840E0404040061A
:1002A00000788888780870068080B0C888888806BA
:1002B0004000C0404040E004100030101090600545
:1002C000808090A0C0A09005C04040404040E00425
:1002D0000000D0A8A88888060000B0C888888806D2
:1002E00000007088888870060000F088F080800622
:1002F00000006898780808060000B0C88080800672
:10030000000070807008F0064040E0404048300631
:100310000000888888986806000088888850200631
:10032000000088A8A8A85006000088502050880621
:1003300000008888780870060000F8102040F80651
:100340002040408040402004808080808080800267
:10035000804040204040800400000068900000067B
:10036000609090600000000500000000240027005D
:100370002A0000000000250028002B0000000000DB
:1003800023002600290004040404040404040202D7
:100390000202020203030303030301020408102004
:1003A000408001020408102001020408102000000F
:1003B0000008000201000003040700000000000024
:1003C00000002020472041204D204520204F20566E
:1003D000204520522020002020502052204520532C
:1003E000205320205320542041205220542020000C
:1003F000D90711241FBECFEFD8E0DEBFCDBF11E07B
:10040000A0E0B1E0E8EFF2E102C005900D92A83063
:10041000B107D9F722E0A8E0B1E001C01D92A73AE8
:10042000B207E1F711E0C9EFD1E004C02197FE0166
:100430000E947409C83FD107C9F70E9439050C947E
:100440007A090C940000833081F028F4813099F00F
:100450008230A9F008958730A9F08830C9F084303F
:10046000B1F4809180008F7D03C0809180008F77F0
:1004700080938000089584B58F7784BD089584B5F6
:100480008F7DFBCF8091B0008F778093B00008956F
:100490008091B0008F7DF9CFCF93DF93282F30E08C
:1004A000F901E255FC4F8491F901E656FC4FD491D5
:1004B000F901EA57FC4FC491CC23A1F081110E94AD
:1004C0002302EC2FF0E0EE0FFF1FE458FC4FA59144
:1004D000B491EC91ED2381E090E009F480E0DF91AC
:1004E000CF91089580E090E0FACF1F93CF93DF93F0
:1004F000282F30E0F901E255FC4F8491F901E656CE
:10050000FC4FD491F901EA57FC4FC491CC23A9F0D8
:10051000162F81110E942302EC2FF0E0EE0FFF1F37
:10052000EE58FC4FA591B4918FB7F894EC9111114E
:1005300008C0D095DE23DC938FBFDF91CF911F9150
:100540000895DE2BF8CFCF93DF9390E0FC01E656C1
:10055000FC4F24918A579C4FFC0184918823D1F051
:1005600090E0880F991FFC01E859FC4FA591B491C8
:10057000FC01EE58FC4FC591D491623071F49FB7E5
:10058000F8943C91822F809583238C93E8812E2BC5
:1005900028839FBFDF91CF9108958FB7F894EC9196
:1005A0002E2B2C938FBFF6CF3FB7F8948091450147
:1005B00090914601A0914701B091480126B5A89BB2
:1005C00005C02F3F19F00196A11DB11D3FBFBA2FE5
:1005D000A92F982F8827BC01CD01620F711D811DA5
:1005E000911D42E0660F771F881F991F4A95D1F72A
:1005F00008958F929F92AF92BF92CF92DF92EF9227
:10060000FF924B015C010E94D4026B017C010E94AD
:10061000D4026C197D098E099F09683E73408105DB
:100620009105A8F321E0821A9108A108B10888EE8B
:10063000C80E83E0D81EE11CF11C81149104A104B2
:10064000B10429F7FF90EF90DF90CF90BF90AF906B
:100650009F908F9008950F931F93CF93DF932091D6
:10066000020130910301F901EE0FFF1FEE0FFF1F92
:10067000E15BFE4FE901CC0FDD1FCC0FDD1FC55B39
:10068000DE4F888199814091000150910101840FD2
:10069000951F089608E010E0B8010E944C0991836C
:1006A00080838A819B814091490150914A01840F46
:1006B000951F0896B8010E944C09938382832F5F8F
:1006C0003F4F3093030120930201DF91CF911F919F
:1006D0000F910895CF92DF92EF92FF920F931F93A5
:1006E000CF93DF9300D0CDB7DEB769834A83880FFD
:1006F000991F0091A5021091A602000F111FEFE4AF
:10070000F2E09F012F5432402017310714F4119268
:10071000F8CF2981FC01E15BFD4F21838A81808331
:1007200060E08091A3020E9475021016110604F584
:1007300001501109F801E15BFD4FE080D090A1026A
:10074000C0909F0288E0F82E6E2D661F6627661FF8
:100750008C2D0E947502EE0C61E08D2D0E947502B9
:1007600060E08D2D0E947502FA94F110EDCFDDCF7F
:1007700061E08091A3020F900F90DF91CF911F91C4
:100780000F91FF90EF90DF90CF900C947502EF9255
:10079000FF921F93CF93DF932091A5023091A60281
:1007A00082179307B4F4EC0123E0880F991F2A9570
:1007B000E1F79C01215A3D4F790111E0F7011192B7
:1007C0007F0140E0612FCE010E946A031F5F193054
:1007D000A9F7DF91CF911F91FF90EF90089520919D
:1007E000A5023091A6028217930774F4FC0123E05E
:1007F000EE0FFF1F2A95E1F7E15BFD4FE60FF71FB4
:10080000408B6F5F0C946A0308954F925F926F92D2
:100810007F928F929F92AF92BF92CF92DF92EF9290
:10082000FF920F931F93CF93DF938C01B0E4CB2EF5
:10083000B1E0DB2EF8018491E82EF12C8052803655
:1008400008F08EC0C7018097A3E0880F991FAA9572
:10085000E1F7A8E0B1E030E020E0EC01C859DF4F5B
:10086000FE01E20FF31FE4914D915D916D917C913A
:1008700013974E2B4D935D936D937C9313972F5F3E
:100880003F4F18962730310559F7FC01E159FF4FCA
:100890009490812C981409F463C0A8E0B1E04D90C5
:1008A0005D906D907C901397B301A201440F551F8A
:1008B000661F771F4D935D936D937C9313971496EA
:1008C0004D915D916D917C911797440F551F661F57
:1008D000771F77FC416014964D935D936D937C93E5
:1008E00017971896CA16DB06D1F638E0A32E31E02A
:1008F000B32ED0E0C0E0F5014481BE0183E090E07A
:100900000E94EF03F5014080518062807380472D83
:10091000552766277727BE0182E090E00E94EF030B
:10092000A30166277727BE0181E090E00E94EF03D4
:100930007727672D562D452DBE0190E080E00E945F
:10094000EF032196F8E0AF0EB11CC730D10599F640
:1009500064E170E080E090E00E94F90283949ACF15
:1009600086E00E944C02892B29F00F5F1F4FEF2871
:1009700009F060CFDF91CF911F910F91FF90EF9021
:10098000DF90CF90BF90AF909F908F907F906F90AF
:100990005F904F900895CF92DF92EF92FF92CF93A6
:1009A000DF930E949108CBE4D1E028E0C22ED12C45
:1009B000E12CF12CA70196010E94E9087983688354
:1009C0000E949108A70196010E94E9087B836A832F
:1009D000DF91CF91FF90EF90DF90CF9008951F921D
:1009E0000F920FB60F9211242F933F938F939F93E3
:1009F000AF93BF938091410190914201A091430137
:100A0000B09144013091400123E0230F2D3758F578
:100A10000196A11DB11D2093400180934101909347
:100A20004201A0934301B09344018091450190910C
:100A30004601A0914701B09148010196A11DB11D49
:100A40008093450190934601A0934701B0934801DC
:100A5000BF91AF919F918F913F912F910F900FBEBA
:100A60000F901F90189526E8230F0296A11DB11D27
:100A7000D2CFCF93DF9300D000D0CDB7DEB778943C
:100A800084B5826084BD84B5816084BD85B5826093
:100A900085BD85B5816085BD80916E008160809344
:100AA0006E001092810080918100826080938100AD
:100AB00080918100816080938100809180008160BD
:100AC000809380008091B10084608093B100809118
:100AD000B00081608093B00080917A008460809340
:100AE0007A0080917A00826080937A0080917A0007
:100AF000816080937A0080917A00806880937A0088
:100B00001092C1008091A5029091A60218161906B4
:100B100034F441E06CE090E080E00E946A03809150
:100B2000A5029091A6021816190634F44FE06AE067
:100B300090E080E00E946A0390E080E00E94C7039A
:100B400062E083E00E94A30262E084E00E94A302CC
:100B500062E082E00E94A30262E085E00E94A302BC
:100B600062E086E00E94A30280E480937C00809192
:100B70007A00806480937A0080917A0086FDFCCFB1
:100B80008091780060917900762F682F072E000CF5
:100B9000880B990B611571058105910511F00E9473
:100BA000E0080E949108E8E0CE2ED12CE12CF12C37
:100BB000A70196010E94E9087093500160934F01CC
:100BC0000E949108A70196010E94E90870935201C2
:100BD0006093510120910201309103013A832983EE
:100BE00049815A814330510544F40E942B03898185
:100BF0009A8101969A838983F3CF0E94CB048091D6
:100C0000A5029091A6021816190634F441E06CE092
:100C100090E080E00E946A038091A5029091A60274
:100C20001816190634F448E06AE090E080E00E946B
:100C30006A0390E080E00E94C70338E0232E312C45
:100C400040E8442E512C58E0852E912CA12CB12C3B
:100C500066246A94762CEE24E394F12C86E00E94BC
:100C60004C02892B09F421C187ED93E00E94050411
:100C7000F5CF0E942B0329813A812F5F3F4F3A83A2
:100C80002983E981FA813397A4F30E94CB0490E091
:100C900080E00E94C7038091A5029091A6021816D9
:100CA000190634F441E06CE090E080E00E946A03B1
:100CB0008091A5029091A6021816190634F448E016
:100CC0006AE090E080E00E946A0390E080E00E9489
:100CD000C70340E050E0452B09F20E940000BECF60
:100CE0008091000190910101019609F41DC1F092DB
:100CF0000101E092000110924A011092490108C0DE
:100D0000109201011092000170924A016092490113
:100D1000EFE4F1E090E080E02B813C8182179307C3
:100D2000DCF401962481358131832083268137814B
:100D3000338322833496F0CF8091490190914A0108
:100D4000019609F403C11092010110920001F09282
:100D50004A01E0924901DCCF4B815C81440F551F71
:100D6000440F551F415B5E4F5A834983F601EE0FD6
:100D7000FF1FEE0FFF1FE15BFE4F808191812091ED
:100D8000000130910101820F931F0896B1010E946A
:100D90004C09A981BA818D939C9382819381209182
:100DA000490130914A01820F931F0896B1010E94B8
:100DB0004C09E981FA81938382834081518120919A
:100DC0004B0130914C014217530759F420914D01CA
:100DD00030914E012817390721F40E942B030E94FD
:100DE000CB0490E080E00E94C7031A8219828091B0
:100DF000A5029091A6022091020130910301498140
:100E00005A81421753074CF518161906F4F4D80105
:100E10006D917C91119768307105B8F412968D919F
:100E20009C918830910588F4A20102C055954795A0
:100E30008A95E2F7FB01E15BFD4F8089482B408BEF
:100E40006F5F90E080E00E946A03E981FA81319649
:100E5000FA83E9830C5F1F4FCACF18161906FCF4FA
:100E600060914B0170914C0168307105C0F4809124
:100E70004D0190914E018830910588F4A20102C085
:100E8000559547958A95E2F7FB01E15BFD4F808917
:100E9000482B408B6F5F90E080E00E946A0366E918
:100EA00070E080E090E00E94F902A0910201B09110
:100EB0000301BA83A9836D01B2E0CB1AD108E9819D
:100EC000FA813197FC83EB830FE411E0F80190E0A5
:100ED00080E0AB81BC81AA0FBB1FAA0FBB1F9D0185
:100EE000215B3E4F3A832983B9016E5F7F4F8C159A
:100EF0009D05A4F440815181A981BA812D913C9135
:100F00004217530741F442815381DB012D913C91FB
:100F10004217530769F101963496E9CF84E00E94A5
:100F20004C02892B09F4DCCE85E00E944C02892B0F
:100F300039F48091490190914A01019709F0E0CE7E
:100F400083E00E944C02892B09F4F6CE82E00E94D5
:100F50004C02892B09F0DCCE8091000190910101B7
:100F6000019709F4D5CE7092010160920001C3CEC1
:100F700082EC93E00E940504F0920301E0920201EA
:100F80000E949108A50194010E94E9087093500104
:100F900060934F010E949108A50194010E94E90805
:100FA000709352016093510120910201309103012D
:100FB00066CECF93DF93CCE0D0E0D093A002C09375
:100FC0009F028BE090E09093A2028093A1028AE0BE
:100FD00090E09093A4028093A30281E090E090932C
:100FE000A6028093A50261E08CE00E94A30261E06A
:100FF0008091A1020E94A30261E08091A3020E945D
:10100000A30261E08091A3020E947502D093A00226
:10101000C0939F02EFE5F2E08FE992E011928E1704
:101020009F07E1F7D0E0C0E08091A5029091A60271
:10103000C817D9073CF540E06FE0CE010E946A0373
:101040008091A5029091A602C817D9072CF447E019
:101050006BE0CE010E946A0340E069E0CE010E948D
:101060006A03CE010E94C7038091A5029091A60257
:10107000C817D9072CF440E06CE0CE010E946A0347
:101080002196D2CFDF91CF9108958F929F92AF9208
:10109000BF92CF92DF92EF92FF92CF93DF93EC015A
:1010A000688179818A819B8161157105810591052E
:1010B00021F464E279ED8BE597E02DE133EF41E037
:1010C00050E00E94E90849015A019B01AC01A7EADE
:1010D000B1E40E9408096B017C01ACEEB4EFA501FC
:1010E00094010E941609C60ED71EE81EF91EF7FECF
:1010F00006C081E0C81AD108E10880E8F80AC88271
:10110000D982EA82FB82C701B6019F77DF91CF9136
:10111000FF90EF90DF90CF90BF90AF909F908F9017
:1011200008958F929F92AF92BF92CF92DF92EF92EB
:10113000FF926091040170910501809106019091E8
:101140000701611571058105910521F464E279EDCE
:101150008BE597E02DE133EF41E050E00E94E90894
:1011600049015A019B01AC01A7EAB1E40E940809B8
:101170006B017C01ACEEB4EFA50194010E9416094D
:10118000C60ED71EE81EF91EF7FE06C081E0C81A7B
:10119000D108E10880E8F80AC0920401D092050164
:1011A000E0920601F0920701C701B6019F77FF9018
:1011B000EF90DF90CF90BF90AF909F908F90089569
:1011C00060930401709305018093060190930701D9
:1011D0000895052E97FB1EF400940E94000957FD08
:1011E00007D00E941B0907FC03D04EF40C940009A1
:1011F00050954095309521953F4F4F4F5F4F089543
:1012000090958095709561957F4F8F4F9F4F089572
:101210000E943D09A59F900DB49F900DA49F800D45
:10122000911D11240895B7FF0C9408090E94080924
:10123000821B930B0895A1E21A2EAA1BBB1BFD0172
:101240000DC0AA1FBB1FEE1FFF1FA217B307E407A5
:10125000F50720F0A21BB30BE40BF50B661F771FFD
:10126000881F991F1A9469F76095709580959095DD
:101270009B01AC01BD01CF010895A29FB001B39FB6
:10128000C001A39F700D811D1124911DB29F700D8F
:10129000811D1124911D089597FB072E16F40094CB
:1012A00007D077FD09D00E94600907FC05D03EF405
:1012B000909581959F4F0895709561957F4F089502
:1012C000AA1BBB1B51E107C0AA1FBB1FA617B7076C
:1012D00010F0A61BB70B881F991F5A95A9F7809588
:1012E0009095BC01CD010895EE0FFF1F0590F4917C
:0812F000E02D0994F894FFCFF2
:0812F8000100010001000000EB
:00000001FF
